:10000E000000F88CF8F3F95BF9B8FA15FA67FAB94B
:10001E00FB04FB4BFB90FBCFFC10FC44FC79FCACCF
:10002E00FCDCFD09FD34FD5CFD82FDA6FDC8FDE88E
:10003E00FE06FE22FE3DFE56FE6EFE85FE9AFEAECC
:10004E00FEC1FED3FEE4FEF4FF03000D0002001419
:10005E000006000F000A00110002000F0002000D42
:10006E000002000D000800000002000D0002001446
:10007E000006000F000A00110002000F0002000D22
:10008E000002001100080000000200110002001919
:10009E0000060018000600160006001400020012EA
:1000AE000002001100080000000200110002000F03
:1000BE00000C00000001000F0002000D0002000CF9
:1000CE00000C00000002000D000200140006000FDC
:1000DE00000A00110002000F0002000D0002000DC8
:1000EE00000800000002000D000200140006000FC0
:1000FE00000A00110002000F0002000D00020011A4
:10010E00000800000002001100020019000600188D
:10011E000006001600060014000200120002001174
:10012E0000080000000200110002000F000C000089
:10013E000002001100020012000600140006000D5D
:10014E00000600180010001600020014000C00112A
:10015E000002000F0002000D000200120006001146
:10016E000006000C0006000D000C000D0006001825
:10017E00000E00180002001900020014000C0011FD
:10018E000002000F0002000D000200120006001116
:10019E000006001200060014000800000001001402
:1001AE000002001B0002001800020019000E0000E1
:1001BE000001001800020019000E000000010018D6
:1001CE0000020019000E00000001001B0002001DBD
:1001DE00000E001B0002001900060019000A00188C
:1001EE000002001400060014000C001100020012A0
:1001FE0000020012000200110002001200020012A2
:10020E000002001100020012000200120002001192
:10021E000002001400080000000100140002001B80
:10022E000004001800020019000E00000001001862
:10023E0000020019000E0000000100180002001953
:10024E00000E00000001001B0002001D000A001E2F
:10025E000002001D0004001B00020019000400191A
:10026E000006001800020019000400180002001910
:10027E000004001800020014000800000001001124
:10028E00000200120004001100020012000400110E
:10029E000002000F0004000D0002000D001000FF10
:1002AE00120365E50925E0FFE50833FE74582FF5C6
:1002BE008274003EF583E493FE740193FFF44E6066
:1002CE00438E0A8F0B0509E5097002050825E0FF2C
:1002DE00E50833FE74582FF58274003EF583E493DF
:1002EE00FE740193FF7C007D4B12039112037C057B
:1002FE0009E50970020508C28C7F057E0012037C99
:08030E00D28C809FC28C80FE9E
:03000B00020316D7
:10031600C0E0C083C082C0D075D000C006C007E56B
:100326000B25E0FFE50A33FE740E2FF58274003EBE
:10033600F5837401937002E4936017740E2FF582AF
:1003460074003EF583E493FE740193F58AEEF58C12
:0F035600B2A5D007D006D0D0D082D083D0E0326D
:10037C00EF1FAC0670011E4C600A7D027CEFDCFEA8
:04038C00DDFC80EC28
:01039000224A
:100365005389F0438901758A66758CFCC28DD28CE0
:07037500D2A9D2AFC2B922E8
:030000000203A355
:0C03A300787FE4F6D8FD75810B0202AEF5
:10039100EF8DF0A4A8F0CF8CF0A428CE8DF0A42E80
:0203A100FE223A
:00000001FF
